{
  "contractName": "person",
  "abi": [
    {
      "anonymous": false,
      "inputs": [
        {
          "indexed": false,
          "internalType": "bytes32",
          "name": "aadharnumber",
          "type": "bytes32"
        },
        {
          "indexed": false,
          "internalType": "bytes",
          "name": "conc",
          "type": "bytes"
        },
        {
          "indexed": false,
          "internalType": "bytes32",
          "name": "ah",
          "type": "bytes32"
        },
        {
          "indexed": false,
          "internalType": "bytes32",
          "name": "ph",
          "type": "bytes32"
        },
        {
          "indexed": false,
          "internalType": "bytes32",
          "name": "pch",
          "type": "bytes32"
        },
        {
          "indexed": false,
          "internalType": "bytes32",
          "name": "nh",
          "type": "bytes32"
        },
        {
          "indexed": false,
          "internalType": "bytes32",
          "name": "dh",
          "type": "bytes32"
        },
        {
          "indexed": false,
          "internalType": "bytes32",
          "name": "finalhash",
          "type": "bytes32"
        }
      ],
      "name": "identityadded",
      "type": "event"
    },
    {
      "inputs": [
        {
          "internalType": "bytes32",
          "name": "",
          "type": "bytes32"
        }
      ],
      "name": "aadharmap",
      "outputs": [
        {
          "internalType": "bytes32",
          "name": "",
          "type": "bytes32"
        }
      ],
      "stateMutability": "view",
      "type": "function",
      "constant": true
    },
    {
      "inputs": [
        {
          "internalType": "bytes32",
          "name": "aadharnumber",
          "type": "bytes32"
        },
        {
          "internalType": "bytes32",
          "name": "passportnumber",
          "type": "bytes32"
        },
        {
          "internalType": "bytes32",
          "name": "pancard",
          "type": "bytes32"
        },
        {
          "internalType": "bytes32",
          "name": "name",
          "type": "bytes32"
        },
        {
          "internalType": "bytes32",
          "name": "dob",
          "type": "bytes32"
        }
      ],
      "name": "addIdentity",
      "outputs": [],
      "stateMutability": "nonpayable",
      "type": "function"
    },
    {
      "inputs": [
        {
          "internalType": "bytes32",
          "name": "aadharnumber",
          "type": "bytes32"
        },
        {
          "internalType": "bytes32",
          "name": "uniqhash",
          "type": "bytes32"
        }
      ],
      "name": "verifyIdentity",
      "outputs": [
        {
          "internalType": "bool",
          "name": "",
          "type": "bool"
        }
      ],
      "stateMutability": "view",
      "type": "function",
      "constant": true
    }
  ],
  "bytecode": "0x608060405234801561001057600080fd5b50610825806100206000396000f3fe608060405234801561001057600080fd5b50600436106100415760003560e01c80633ae8b6a3146100465780633d33a3df14610062578063ebed8dfd14610092575b600080fd5b610060600480360381019061005b91906104eb565b6100c2565b005b61007c6004803603810190610077919061045d565b6103eb565b60405161008991906106ad565b60405180910390f35b6100ac60048036038101906100a791906104af565b610403565b6040516100b99190610692565b60405180910390f35b60006002866040516020016100d79190610601565b6040516020818303038152906040526040516100f3919061067b565b602060405180830381855afa158015610110573d6000803e3d6000fd5b5050506040513d601f19601f820116820180604052508101906101339190610486565b9050600060028660405160200161014a9190610601565b604051602081830303815290604052604051610166919061067b565b602060405180830381855afa158015610183573d6000803e3d6000fd5b5050506040513d601f19601f820116820180604052508101906101a69190610486565b905060006002866040516020016101bd9190610601565b6040516020818303038152906040526040516101d9919061067b565b602060405180830381855afa1580156101f6573d6000803e3d6000fd5b5050506040513d601f19601f820116820180604052508101906102199190610486565b905060006002866040516020016102309190610601565b60405160208183030381529060405260405161024c919061067b565b602060405180830381855afa158015610269573d6000803e3d6000fd5b5050506040513d601f19601f8201168201806040525081019061028c9190610486565b905060006002866040516020016102a39190610601565b6040516020818303038152906040526040516102bf919061067b565b602060405180830381855afa1580156102dc573d6000803e3d6000fd5b5050506040513d601f19601f820116820180604052508101906102ff9190610486565b90506000858585858560405160200161031c95949392919061061c565b6040516020818303038152906040529050600060028260405161033f919061067b565b602060405180830381855afa15801561035c573d6000803e3d6000fd5b5050506040513d601f19601f8201168201806040525081019061037f9190610486565b9050806000808e8152602001908152602001600020819055507f792522c07e22be261581de71ab27dd01d254f7731438515317ffaedc3524247a8c838989898989886040516103d59897969594939291906106c8565b60405180910390a1505050505050505050505050565b60006020528060005260406000206000915090505481565b600081600080858152602001908152602001600020541415610428576001905061042d565b600090505b92915050565b600081359050610442816107d8565b92915050565b600081519050610457816107d8565b92915050565b60006020828403121561046f57600080fd5b600061047d84828501610433565b91505092915050565b60006020828403121561049857600080fd5b60006104a684828501610448565b91505092915050565b600080604083850312156104c257600080fd5b60006104d085828601610433565b92505060206104e185828601610433565b9150509250929050565b600080600080600060a0868803121561050357600080fd5b600061051188828901610433565b955050602061052288828901610433565b945050604061053388828901610433565b935050606061054488828901610433565b925050608061055588828901610433565b9150509295509295909350565b61056b81610774565b82525050565b61057a81610780565b82525050565b61059161058c82610780565b6107bd565b82525050565b60006105a28261074d565b6105ac8185610758565b93506105bc81856020860161078a565b6105c5816107c7565b840191505092915050565b60006105db8261074d565b6105e58185610769565b93506105f581856020860161078a565b80840191505092915050565b600061060d8284610580565b60208201915081905092915050565b60006106288288610580565b6020820191506106388287610580565b6020820191506106488286610580565b6020820191506106588285610580565b6020820191506106688284610580565b6020820191508190509695505050505050565b600061068782846105d0565b915081905092915050565b60006020820190506106a76000830184610562565b92915050565b60006020820190506106c26000830184610571565b92915050565b6000610100820190506106de600083018b610571565b81810360208301526106f0818a610597565b90506106ff6040830189610571565b61070c6060830188610571565b6107196080830187610571565b61072660a0830186610571565b61073360c0830185610571565b61074060e0830184610571565b9998505050505050505050565b600081519050919050565b600082825260208201905092915050565b600081905092915050565b60008115159050919050565b6000819050919050565b60005b838110156107a857808201518184015260208101905061078d565b838111156107b7576000848401525b50505050565b6000819050919050565b6000601f19601f8301169050919050565b6107e181610780565b81146107ec57600080fd5b5056fea2646970667358221220ee8ca928a747b17f45f04fc79479b9c72f637a2ce3dfb36f03b6203d62140aae64736f6c63430008000033",
  "immutableReferences": {},
  "source": "// SPDX-License-Identifier: MIT\npragma solidity >=0.4.22 <0.9.0;\ncontract person {\n    mapping(bytes32=>bytes32) public aadharmap;\n    event identityadded( bytes32 aadharnumber,bytes conc, bytes32 ah,bytes32 ph,bytes32 pch,bytes32 nh,bytes32 dh, bytes32 finalhash);\n    // event iden( bytes32 aadharnumber,bytes32 conc);\n    function addIdentity(bytes32 aadharnumber, bytes32 passportnumber, bytes32 pancard, bytes32 name,\n    bytes32 dob) public{\n\n        \n        // Hash each input using SHA-256\n        bytes32 aadharHash = sha256(abi.encodePacked(aadharnumber));\n        bytes32 passportHash = sha256(abi.encodePacked(passportnumber));\n        bytes32 pancardHash = sha256(abi.encodePacked(pancard));\n        bytes32 nameHash = sha256(abi.encodePacked(name));\n        bytes32 dobHash = sha256(abi.encodePacked(dob));\n        \n        // Concatenate all individual hashes\n        bytes memory concatenated = abi.encodePacked(aadharHash, passportHash, pancardHash, nameHash, dobHash);\n        \n        \n        // Hash the concatenated string using SHA-256 to get the final hash\n        // bytes32 finalHash = sha256(concatenated);\n        bytes32 finalHash = sha256(concatenated);\n\n        aadharmap[aadharnumber] = finalHash;\n        emit identityadded(aadharnumber,concatenated,aadharHash,passportHash,pancardHash,nameHash,dobHash, finalHash);\n    }\n\n\n    //Verify\n\n    function verifyIdentity(bytes32 aadharnumber, bytes32 uniqhash) public view  returns(bool){\n        // emit iden(aadharnumber,aadharmap[aadharnumber]);\n        if(aadharmap[aadharnumber] == uniqhash){\n            return true;\n        }\n        else{\n            return false;\n        }\n    }\n}",
  "sourcePath": "C:\\Users\\ashuk\\Downloads\\Fake-Product-Identification-master\\contracts\\identity.sol",
  "compiler": {
    "name": "solc",
    "version": "0.8.0+commit.c7dfd78e.Emscripten.clang"
  },
  "schemaVersion": "3.4.16",
  "updatedAt": "2024-04-24T22:36:59.749Z",
  "networkType": "ethereum",
  "devdoc": {
    "kind": "dev",
    "methods": {},
    "version": 1
  },
  "userdoc": {
    "kind": "user",
    "methods": {},
    "version": 1
  }
}