{
  "contractName": "person",
  "abi": [
    {
      "inputs": [
        {
          "internalType": "bytes32",
          "name": "",
          "type": "bytes32"
        }
      ],
      "name": "aadharmap",
      "outputs": [
        {
          "internalType": "bytes32",
          "name": "",
          "type": "bytes32"
        }
      ],
      "stateMutability": "view",
      "type": "function",
      "constant": true
    },
    {
      "inputs": [
        {
          "internalType": "bytes32",
          "name": "aadharnumber",
          "type": "bytes32"
        },
        {
          "internalType": "bytes32",
          "name": "passportnumber",
          "type": "bytes32"
        },
        {
          "internalType": "bytes32",
          "name": "pancard",
          "type": "bytes32"
        },
        {
          "internalType": "bytes32",
          "name": "name",
          "type": "bytes32"
        },
        {
          "internalType": "uint256",
          "name": "dob",
          "type": "uint256"
        }
      ],
      "name": "addIdentity",
      "outputs": [],
      "stateMutability": "nonpayable",
      "type": "function"
    },
    {
      "inputs": [
        {
          "internalType": "bytes32",
          "name": "aadharnumber",
          "type": "bytes32"
        },
        {
          "internalType": "bytes32",
          "name": "uniqhash",
          "type": "bytes32"
        }
      ],
      "name": "verifyIdentity",
      "outputs": [
        {
          "internalType": "bool",
          "name": "",
          "type": "bool"
        }
      ],
      "stateMutability": "view",
      "type": "function",
      "constant": true
    }
  ],
  "bytecode": "0x608060405234801561001057600080fd5b506106cb806100206000396000f3fe608060405234801561001057600080fd5b50600436106100415760003560e01c80633d33a3df146100465780637fb8dec614610076578063ebed8dfd14610092575b600080fd5b610060600480360381019061005b91906103c2565b6100c2565b60405161006d91906105d9565b60405180910390f35b610090600480360381019061008b9190610450565b6100da565b005b6100ac60048036038101906100a79190610414565b610353565b6040516100b991906105be565b60405180910390f35b60006020528060005260406000206000915090505481565b60008160001b905060006002876040516020016100f7919061052d565b60405160208183030381529060405260405161011391906105a7565b602060405180830381855afa158015610130573d6000803e3d6000fd5b5050506040513d601f19601f8201168201806040525081019061015391906103eb565b9050600060028760405160200161016a919061052d565b60405160208183030381529060405260405161018691906105a7565b602060405180830381855afa1580156101a3573d6000803e3d6000fd5b5050506040513d601f19601f820116820180604052508101906101c691906103eb565b905060006002876040516020016101dd919061052d565b6040516020818303038152906040526040516101f991906105a7565b602060405180830381855afa158015610216573d6000803e3d6000fd5b5050506040513d601f19601f8201168201806040525081019061023991906103eb565b90506000600287604051602001610250919061052d565b60405160208183030381529060405260405161026c91906105a7565b602060405180830381855afa158015610289573d6000803e3d6000fd5b5050506040513d601f19601f820116820180604052508101906102ac91906103eb565b9050600084848484896040516020016102c9959493929190610548565b604051602081830303815290604052905060006002826040516102ec91906105a7565b602060405180830381855afa158015610309573d6000803e3d6000fd5b5050506040513d601f19601f8201168201806040525081019061032c91906103eb565b9050806000808e815260200190815260200160002081905550505050505050505050505050565b600081600080858152602001908152602001600020541415610378576001905061037d565b600090505b92915050565b60008135905061039281610667565b92915050565b6000815190506103a781610667565b92915050565b6000813590506103bc8161067e565b92915050565b6000602082840312156103d457600080fd5b60006103e284828501610383565b91505092915050565b6000602082840312156103fd57600080fd5b600061040b84828501610398565b91505092915050565b6000806040838503121561042757600080fd5b600061043585828601610383565b925050602061044685828601610383565b9150509250929050565b600080600080600060a0868803121561046857600080fd5b600061047688828901610383565b955050602061048788828901610383565b945050604061049888828901610383565b93505060606104a988828901610383565b92505060806104ba888289016103ad565b9150509295509295909350565b6104d08161060a565b82525050565b6104df81610616565b82525050565b6104f66104f182610616565b61065d565b82525050565b6000610507826105f4565b61051181856105ff565b935061052181856020860161062a565b80840191505092915050565b600061053982846104e5565b60208201915081905092915050565b600061055482886104e5565b60208201915061056482876104e5565b60208201915061057482866104e5565b60208201915061058482856104e5565b60208201915061059482846104e5565b6020820191508190509695505050505050565b60006105b382846104fc565b915081905092915050565b60006020820190506105d360008301846104c7565b92915050565b60006020820190506105ee60008301846104d6565b92915050565b600081519050919050565b600081905092915050565b60008115159050919050565b6000819050919050565b6000819050919050565b60005b8381101561064857808201518184015260208101905061062d565b83811115610657576000848401525b50505050565b6000819050919050565b61067081610616565b811461067b57600080fd5b50565b61068781610620565b811461069257600080fd5b5056fea26469706673582212201c54543e03fbf4f1ee10b79ecf603b2a46576581f2b17f098217da582d43202a64736f6c63430008000033",
  "immutableReferences": {},
  "source": "// SPDX-License-Identifier: MIT\npragma solidity ^ 0.8.0;\ncontract person {\n    mapping(bytes32=>bytes32) public aadharmap;\n\n    function addIdentity(bytes32 aadharnumber, bytes32 passportnumber, bytes32 pancard, bytes32 name,\n    uint256 dob) public{\n        // Convert uint256 to bytes32\n        bytes32 dobHash = bytes32(dob);\n        \n        // Hash each input using SHA-256\n        bytes32 aadharHash = sha256(abi.encodePacked(aadharnumber));\n        bytes32 passportHash = sha256(abi.encodePacked(passportnumber));\n        bytes32 pancardHash = sha256(abi.encodePacked(pancard));\n        bytes32 nameHash = sha256(abi.encodePacked(name));\n        \n        // Concatenate all individual hashes\n        bytes memory concatenated = abi.encodePacked(aadharHash, passportHash, pancardHash, nameHash, dobHash);\n        \n        // Hash the concatenated string using SHA-256 to get the final hash\n        bytes32 finalHash = sha256(concatenated);\n\n        aadharmap[aadharnumber] = finalHash;\n\n    }\n\n\n    //Verify\n\n    function verifyIdentity(bytes32 aadharnumber, bytes32 uniqhash) public view returns(bool){\n        if(aadharmap[aadharnumber] == uniqhash){\n            return true;\n        }\n        else{\n            return false;\n        }\n    }\n}",
  "sourcePath": "C:\\Users\\ashuk\\Downloads\\Fake-Product-Identification-master\\contracts\\identity.sol",
  "compiler": {
    "name": "solc",
    "version": "0.8.0+commit.c7dfd78e.Emscripten.clang"
  },
  "schemaVersion": "3.4.16",
  "updatedAt": "2024-04-24T18:41:06.492Z",
  "networkType": "ethereum",
  "devdoc": {
    "kind": "dev",
    "methods": {},
    "version": 1
  },
  "userdoc": {
    "kind": "user",
    "methods": {},
    "version": 1
  }
}