{
  "contractName": "product",
  "abi": [
    {
      "inputs": [
        {
          "internalType": "uint256",
          "name": "",
          "type": "uint256"
        }
      ],
      "name": "productItems",
      "outputs": [
        {
          "internalType": "uint256",
          "name": "productId",
          "type": "uint256"
        },
        {
          "internalType": "bytes32",
          "name": "productSN",
          "type": "bytes32"
        },
        {
          "internalType": "bytes32",
          "name": "productName",
          "type": "bytes32"
        },
        {
          "internalType": "bytes32",
          "name": "productBrand",
          "type": "bytes32"
        },
        {
          "internalType": "uint256",
          "name": "productPrice",
          "type": "uint256"
        },
        {
          "internalType": "bytes32",
          "name": "productStatus",
          "type": "bytes32"
        }
      ],
      "stateMutability": "view",
      "type": "function",
      "constant": true
    },
    {
      "inputs": [
        {
          "internalType": "bytes32",
          "name": "",
          "type": "bytes32"
        }
      ],
      "name": "productMap",
      "outputs": [
        {
          "internalType": "uint256",
          "name": "",
          "type": "uint256"
        }
      ],
      "stateMutability": "view",
      "type": "function",
      "constant": true
    },
    {
      "inputs": [
        {
          "internalType": "bytes32",
          "name": "",
          "type": "bytes32"
        }
      ],
      "name": "productsForSale",
      "outputs": [
        {
          "internalType": "bytes32",
          "name": "",
          "type": "bytes32"
        }
      ],
      "stateMutability": "view",
      "type": "function",
      "constant": true
    },
    {
      "inputs": [
        {
          "internalType": "bytes32",
          "name": "",
          "type": "bytes32"
        }
      ],
      "name": "productsManufactured",
      "outputs": [
        {
          "internalType": "bytes32",
          "name": "",
          "type": "bytes32"
        }
      ],
      "stateMutability": "view",
      "type": "function",
      "constant": true
    },
    {
      "inputs": [
        {
          "internalType": "bytes32",
          "name": "",
          "type": "bytes32"
        }
      ],
      "name": "productsSold",
      "outputs": [
        {
          "internalType": "bytes32",
          "name": "",
          "type": "bytes32"
        }
      ],
      "stateMutability": "view",
      "type": "function",
      "constant": true
    },
    {
      "inputs": [
        {
          "internalType": "bytes32",
          "name": "",
          "type": "bytes32"
        },
        {
          "internalType": "uint256",
          "name": "",
          "type": "uint256"
        }
      ],
      "name": "productsWithConsumer",
      "outputs": [
        {
          "internalType": "bytes32",
          "name": "",
          "type": "bytes32"
        }
      ],
      "stateMutability": "view",
      "type": "function",
      "constant": true
    },
    {
      "inputs": [
        {
          "internalType": "bytes32",
          "name": "",
          "type": "bytes32"
        },
        {
          "internalType": "uint256",
          "name": "",
          "type": "uint256"
        }
      ],
      "name": "productsWithSeller",
      "outputs": [
        {
          "internalType": "bytes32",
          "name": "",
          "type": "bytes32"
        }
      ],
      "stateMutability": "view",
      "type": "function",
      "constant": true
    },
    {
      "inputs": [
        {
          "internalType": "uint256",
          "name": "",
          "type": "uint256"
        }
      ],
      "name": "sellers",
      "outputs": [
        {
          "internalType": "uint256",
          "name": "sellerId",
          "type": "uint256"
        },
        {
          "internalType": "bytes32",
          "name": "sellerName",
          "type": "bytes32"
        },
        {
          "internalType": "bytes32",
          "name": "sellerBrand",
          "type": "bytes32"
        },
        {
          "internalType": "bytes32",
          "name": "sellerCode",
          "type": "bytes32"
        },
        {
          "internalType": "uint256",
          "name": "sellerNum",
          "type": "uint256"
        },
        {
          "internalType": "bytes32",
          "name": "sellerManager",
          "type": "bytes32"
        },
        {
          "internalType": "bytes32",
          "name": "sellerAddress",
          "type": "bytes32"
        }
      ],
      "stateMutability": "view",
      "type": "function",
      "constant": true
    },
    {
      "inputs": [
        {
          "internalType": "bytes32",
          "name": "",
          "type": "bytes32"
        },
        {
          "internalType": "uint256",
          "name": "",
          "type": "uint256"
        }
      ],
      "name": "sellersWithManufacturer",
      "outputs": [
        {
          "internalType": "bytes32",
          "name": "",
          "type": "bytes32"
        }
      ],
      "stateMutability": "view",
      "type": "function",
      "constant": true
    },
    {
      "inputs": [
        {
          "internalType": "bytes32",
          "name": "_manufacturerId",
          "type": "bytes32"
        },
        {
          "internalType": "bytes32",
          "name": "_sellerName",
          "type": "bytes32"
        },
        {
          "internalType": "bytes32",
          "name": "_sellerBrand",
          "type": "bytes32"
        },
        {
          "internalType": "bytes32",
          "name": "_sellerCode",
          "type": "bytes32"
        },
        {
          "internalType": "uint256",
          "name": "_sellerNum",
          "type": "uint256"
        },
        {
          "internalType": "bytes32",
          "name": "_sellerManager",
          "type": "bytes32"
        },
        {
          "internalType": "bytes32",
          "name": "_sellerAddress",
          "type": "bytes32"
        }
      ],
      "name": "addSeller",
      "outputs": [],
      "stateMutability": "nonpayable",
      "type": "function"
    },
    {
      "inputs": [],
      "name": "viewSellers",
      "outputs": [
        {
          "internalType": "uint256[]",
          "name": "",
          "type": "uint256[]"
        },
        {
          "internalType": "bytes32[]",
          "name": "",
          "type": "bytes32[]"
        },
        {
          "internalType": "bytes32[]",
          "name": "",
          "type": "bytes32[]"
        },
        {
          "internalType": "bytes32[]",
          "name": "",
          "type": "bytes32[]"
        },
        {
          "internalType": "uint256[]",
          "name": "",
          "type": "uint256[]"
        },
        {
          "internalType": "bytes32[]",
          "name": "",
          "type": "bytes32[]"
        },
        {
          "internalType": "bytes32[]",
          "name": "",
          "type": "bytes32[]"
        }
      ],
      "stateMutability": "view",
      "type": "function",
      "constant": true
    },
    {
      "inputs": [
        {
          "internalType": "bytes32",
          "name": "_manufactuerID",
          "type": "bytes32"
        },
        {
          "internalType": "bytes32",
          "name": "_productName",
          "type": "bytes32"
        },
        {
          "internalType": "bytes32",
          "name": "_productSN",
          "type": "bytes32"
        },
        {
          "internalType": "bytes32",
          "name": "_productBrand",
          "type": "bytes32"
        },
        {
          "internalType": "uint256",
          "name": "_productPrice",
          "type": "uint256"
        }
      ],
      "name": "addProduct",
      "outputs": [],
      "stateMutability": "nonpayable",
      "type": "function"
    },
    {
      "inputs": [],
      "name": "viewProductItems",
      "outputs": [
        {
          "internalType": "uint256[]",
          "name": "",
          "type": "uint256[]"
        },
        {
          "internalType": "bytes32[]",
          "name": "",
          "type": "bytes32[]"
        },
        {
          "internalType": "bytes32[]",
          "name": "",
          "type": "bytes32[]"
        },
        {
          "internalType": "bytes32[]",
          "name": "",
          "type": "bytes32[]"
        },
        {
          "internalType": "uint256[]",
          "name": "",
          "type": "uint256[]"
        },
        {
          "internalType": "bytes32[]",
          "name": "",
          "type": "bytes32[]"
        }
      ],
      "stateMutability": "view",
      "type": "function",
      "constant": true
    },
    {
      "inputs": [
        {
          "internalType": "bytes32",
          "name": "_productSN",
          "type": "bytes32"
        },
        {
          "internalType": "bytes32",
          "name": "_sellerCode",
          "type": "bytes32"
        }
      ],
      "name": "manufacturerSellProduct",
      "outputs": [],
      "stateMutability": "nonpayable",
      "type": "function"
    },
    {
      "inputs": [
        {
          "internalType": "bytes32",
          "name": "_productSN",
          "type": "bytes32"
        },
        {
          "internalType": "bytes32",
          "name": "_consumerCode",
          "type": "bytes32"
        }
      ],
      "name": "sellerSellProduct",
      "outputs": [],
      "stateMutability": "nonpayable",
      "type": "function"
    },
    {
      "inputs": [
        {
          "internalType": "bytes32",
          "name": "_sellerCode",
          "type": "bytes32"
        }
      ],
      "name": "queryProductsList",
      "outputs": [
        {
          "internalType": "uint256[]",
          "name": "",
          "type": "uint256[]"
        },
        {
          "internalType": "bytes32[]",
          "name": "",
          "type": "bytes32[]"
        },
        {
          "internalType": "bytes32[]",
          "name": "",
          "type": "bytes32[]"
        },
        {
          "internalType": "bytes32[]",
          "name": "",
          "type": "bytes32[]"
        },
        {
          "internalType": "uint256[]",
          "name": "",
          "type": "uint256[]"
        },
        {
          "internalType": "bytes32[]",
          "name": "",
          "type": "bytes32[]"
        }
      ],
      "stateMutability": "view",
      "type": "function",
      "constant": true
    },
    {
      "inputs": [
        {
          "internalType": "bytes32",
          "name": "_manufacturerCode",
          "type": "bytes32"
        }
      ],
      "name": "querySellersList",
      "outputs": [
        {
          "internalType": "uint256[]",
          "name": "",
          "type": "uint256[]"
        },
        {
          "internalType": "bytes32[]",
          "name": "",
          "type": "bytes32[]"
        },
        {
          "internalType": "bytes32[]",
          "name": "",
          "type": "bytes32[]"
        },
        {
          "internalType": "bytes32[]",
          "name": "",
          "type": "bytes32[]"
        },
        {
          "internalType": "uint256[]",
          "name": "",
          "type": "uint256[]"
        },
        {
          "internalType": "bytes32[]",
          "name": "",
          "type": "bytes32[]"
        },
        {
          "internalType": "bytes32[]",
          "name": "",
          "type": "bytes32[]"
        }
      ],
      "stateMutability": "view",
      "type": "function",
      "constant": true
    },
    {
      "inputs": [
        {
          "internalType": "bytes32",
          "name": "_consumerCode",
          "type": "bytes32"
        }
      ],
      "name": "getPurchaseHistory",
      "outputs": [
        {
          "internalType": "bytes32[]",
          "name": "",
          "type": "bytes32[]"
        },
        {
          "internalType": "bytes32[]",
          "name": "",
          "type": "bytes32[]"
        },
        {
          "internalType": "bytes32[]",
          "name": "",
          "type": "bytes32[]"
        }
      ],
      "stateMutability": "view",
      "type": "function",
      "constant": true
    },
    {
      "inputs": [
        {
          "internalType": "bytes32",
          "name": "_productSN",
          "type": "bytes32"
        },
        {
          "internalType": "bytes32",
          "name": "_consumerCode",
          "type": "bytes32"
        }
      ],
      "name": "verifyProduct",
      "outputs": [
        {
          "internalType": "bool",
          "name": "",
          "type": "bool"
        }
      ],
      "stateMutability": "view",
      "type": "function",
      "constant": true
    }
  ],
  "bytecode": "0x608060405234801561001057600080fd5b50612bba806100206000396000f3fe608060405234801561001057600080fd5b50600436106101215760003560e01c80639316bff0116100ad578063c20805b411610071578063c20805b41461036a578063caaf27511461039a578063cd4f6a2e146103cf578063cee26ed5146103ff578063e262113f1461043557610121565b80639316bff0146102a05780639cd777dd146102bc5780639ea4695d146102ec578063a090f47c1461031e578063b0c7ad941461034e57610121565b80631b3658c8116100f45780631b3658c8146101d3578063344b5d51146101ef5780634b9930011461021f5780638577a7011461024f57806392162bc41461026b57610121565b8063032f95e614610126578063100b6ba21461014a578063130aa81f1461017a5780631836bd4b146101b0575b600080fd5b61012e610465565b604051610141979695949392919061288b565b60405180910390f35b610164600480360381019061015f919061249e565b610a66565b6040516101719190612961565b60405180910390f35b610194600480360381019061018f919061249e565b610a7e565b6040516101a7979695949392919061288b565b60405180910390f35b6101b861117b565b6040516101ca96959493929190612800565b60405180910390f35b6101ed60048036038101906101e8919061257a565b6116ab565b005b610209600480360381019061020491906124c7565b611797565b604051610216919061292b565b60405180910390f35b61023960048036038101906102349190612618565b6117c8565b6040516102469190612946565b60405180910390f35b610269600480360381019061026491906124c7565b6117f9565b005b6102856004803603810190610280919061249e565b61184f565b60405161029796959493929190612800565b60405180910390f35b6102ba60048036038101906102b59190612503565b611e76565b005b6102d660048036038101906102d19190612618565b611f6a565b6040516102e39190612946565b60405180910390f35b6103066004803603810190610301919061249e565b611f9b565b604051610315939291906127b4565b60405180910390f35b6103386004803603810190610333919061249e565b612253565b6040516103459190612946565b60405180910390f35b610368600480360381019061036391906124c7565b61226b565b005b610384600480360381019061037f919061249e565b612395565b6040516103919190612946565b60405180910390f35b6103b460048036038101906103af9190612654565b6123ad565b6040516103c69695949392919061297c565b60405180910390f35b6103e960048036038101906103e4919061249e565b6123e9565b6040516103f69190612946565b60405180910390f35b61041960048036038101906104149190612654565b612401565b60405161042c97969594939291906129dd565b60405180910390f35b61044f600480360381019061044a9190612618565b612443565b60405161045c9190612946565b60405180910390f35b60608060608060608060606000805467ffffffffffffffff8111156104b3577f4e487b7100000000000000000000000000000000000000000000000000000000600052604160045260246000fd5b6040519080825280602002602001820160405280156104e15781602001602082028036833780820191505090505b5090506000805467ffffffffffffffff811115610527577f4e487b7100000000000000000000000000000000000000000000000000000000600052604160045260246000fd5b6040519080825280602002602001820160405280156105555781602001602082028036833780820191505090505b5090506000805467ffffffffffffffff81111561059b577f4e487b7100000000000000000000000000000000000000000000000000000000600052604160045260246000fd5b6040519080825280602002602001820160405280156105c95781602001602082028036833780820191505090505b5090506000805467ffffffffffffffff81111561060f577f4e487b7100000000000000000000000000000000000000000000000000000000600052604160045260246000fd5b60405190808252806020026020018201604052801561063d5781602001602082028036833780820191505090505b5090506000805467ffffffffffffffff811115610683577f4e487b7100000000000000000000000000000000000000000000000000000000600052604160045260246000fd5b6040519080825280602002602001820160405280156106b15781602001602082028036833780820191505090505b5090506000805467ffffffffffffffff8111156106f7577f4e487b7100000000000000000000000000000000000000000000000000000000600052604160045260246000fd5b6040519080825280602002602001820160405280156107255781602001602082028036833780820191505090505b5090506000805467ffffffffffffffff81111561076b577f4e487b7100000000000000000000000000000000000000000000000000000000600052604160045260246000fd5b6040519080825280602002602001820160405280156107995781602001602082028036833780820191505090505b50905060005b600054811015610a405760026000828152602001908152602001600020600001548882815181106107f9577f4e487b7100000000000000000000000000000000000000000000000000000000600052603260045260246000fd5b6020026020010181815250506002600082815260200190815260200160002060010154878281518110610855577f4e487b7100000000000000000000000000000000000000000000000000000000600052603260045260246000fd5b60200260200101818152505060026000828152602001908152602001600020600201548682815181106108b1577f4e487b7100000000000000000000000000000000000000000000000000000000600052603260045260246000fd5b602002602001018181525050600260008281526020019081526020016000206003015485828151811061090d577f4e487b7100000000000000000000000000000000000000000000000000000000600052603260045260246000fd5b6020026020010181815250506002600082815260200190815260200160002060040154848281518110610969577f4e487b7100000000000000000000000000000000000000000000000000000000600052603260045260246000fd5b60200260200101818152505060026000828152602001908152602001600020600501548382815181106109c5577f4e487b7100000000000000000000000000000000000000000000000000000000600052603260045260246000fd5b6020026020010181815250506002600082815260200190815260200160002060060154828281518110610a21577f4e487b7100000000000000000000000000000000000000000000000000000000600052603260045260246000fd5b6020026020010181815250508080610a3890612ade565b91505061079f565b50868686868686869d509d509d509d509d509d509d505050505050505090919293949596565b60046020528060005260406000206000915090505481565b60608060608060608060606000600a60008a8152602001908152602001600020805480602002602001604051908101604052809291908181526020018280548015610ae857602002820191906000526020600020905b815481526020019060010190808311610ad4575b50505050509050600080805467ffffffffffffffff811115610b33577f4e487b7100000000000000000000000000000000000000000000000000000000600052604160045260246000fd5b604051908082528060200260200182016040528015610b615781602001602082028036833780820191505090505b5090506000805467ffffffffffffffff811115610ba7577f4e487b7100000000000000000000000000000000000000000000000000000000600052604160045260246000fd5b604051908082528060200260200182016040528015610bd55781602001602082028036833780820191505090505b5090506000805467ffffffffffffffff811115610c1b577f4e487b7100000000000000000000000000000000000000000000000000000000600052604160045260246000fd5b604051908082528060200260200182016040528015610c495781602001602082028036833780820191505090505b5090506000805467ffffffffffffffff811115610c8f577f4e487b7100000000000000000000000000000000000000000000000000000000600052604160045260246000fd5b604051908082528060200260200182016040528015610cbd5781602001602082028036833780820191505090505b5090506000805467ffffffffffffffff811115610d03577f4e487b7100000000000000000000000000000000000000000000000000000000600052604160045260246000fd5b604051908082528060200260200182016040528015610d315781602001602082028036833780820191505090505b5090506000805467ffffffffffffffff811115610d77577f4e487b7100000000000000000000000000000000000000000000000000000000600052604160045260246000fd5b604051908082528060200260200182016040528015610da55781602001602082028036833780820191505090505b5090506000805467ffffffffffffffff811115610deb577f4e487b7100000000000000000000000000000000000000000000000000000000600052604160045260246000fd5b604051908082528060200260200182016040528015610e195781602001602082028036833780820191505090505b50905060005b6000548110156111515760005b8a5181101561113d578a8181518110610e6e577f4e487b7100000000000000000000000000000000000000000000000000000000600052603260045260246000fd5b60200260200101516002600084815260200190815260200160002060030154141561112a576002600083815260200190815260200160002060000154898b81518110610ee3577f4e487b7100000000000000000000000000000000000000000000000000000000600052603260045260246000fd5b6020026020010181815250506002600083815260200190815260200160002060010154888b81518110610f3f577f4e487b7100000000000000000000000000000000000000000000000000000000600052603260045260246000fd5b6020026020010181815250506002600083815260200190815260200160002060020154878b81518110610f9b577f4e487b7100000000000000000000000000000000000000000000000000000000600052603260045260246000fd5b6020026020010181815250506002600083815260200190815260200160002060030154868b81518110610ff7577f4e487b7100000000000000000000000000000000000000000000000000000000600052603260045260246000fd5b6020026020010181815250506002600083815260200190815260200160002060040154858b81518110611053577f4e487b7100000000000000000000000000000000000000000000000000000000600052603260045260246000fd5b6020026020010181815250506002600083815260200190815260200160002060050154848b815181106110af577f4e487b7100000000000000000000000000000000000000000000000000000000600052603260045260246000fd5b6020026020010181815250506002600083815260200190815260200160002060060154838b8151811061110b577f4e487b7100000000000000000000000000000000000000000000000000000000600052603260045260246000fd5b602002602001018181525050898061112290612ade565b9a505061113d565b808061113590612ade565b915050610e2c565b50808061114990612ade565b915050610e1f565b50868686868686869f509f509f509f509f509f509f50505050505050505050919395979092949650565b606080606080606080600060015467ffffffffffffffff8111156111c8577f4e487b7100000000000000000000000000000000000000000000000000000000600052604160045260246000fd5b6040519080825280602002602001820160405280156111f65781602001602082028036833780820191505090505b509050600060015467ffffffffffffffff81111561123d577f4e487b7100000000000000000000000000000000000000000000000000000000600052604160045260246000fd5b60405190808252806020026020018201604052801561126b5781602001602082028036833780820191505090505b509050600060015467ffffffffffffffff8111156112b2577f4e487b7100000000000000000000000000000000000000000000000000000000600052604160045260246000fd5b6040519080825280602002602001820160405280156112e05781602001602082028036833780820191505090505b509050600060015467ffffffffffffffff811115611327577f4e487b7100000000000000000000000000000000000000000000000000000000600052604160045260246000fd5b6040519080825280602002602001820160405280156113555781602001602082028036833780820191505090505b509050600060015467ffffffffffffffff81111561139c577f4e487b7100000000000000000000000000000000000000000000000000000000600052604160045260246000fd5b6040519080825280602002602001820160405280156113ca5781602001602082028036833780820191505090505b509050600060015467ffffffffffffffff811115611411577f4e487b7100000000000000000000000000000000000000000000000000000000600052604160045260246000fd5b60405190808252806020026020018201604052801561143f5781602001602082028036833780820191505090505b50905060005b60015481101561168a57600360008281526020019081526020016000206000015487828151811061149f577f4e487b7100000000000000000000000000000000000000000000000000000000600052603260045260246000fd5b60200260200101818152505060036000828152602001908152602001600020600101548682815181106114fb577f4e487b7100000000000000000000000000000000000000000000000000000000600052603260045260246000fd5b6020026020010181815250506003600082815260200190815260200160002060020154858281518110611557577f4e487b7100000000000000000000000000000000000000000000000000000000600052603260045260246000fd5b60200260200101818152505060036000828152602001908152602001600020600301548482815181106115b3577f4e487b7100000000000000000000000000000000000000000000000000000000600052603260045260246000fd5b602002602001018181525050600360008281526020019081526020016000206004015483828151811061160f577f4e487b7100000000000000000000000000000000000000000000000000000000600052603260045260246000fd5b602002602001018181525050600360008281526020019081526020016000206005015482828151811061166b577f4e487b7100000000000000000000000000000000000000000000000000000000600052603260045260246000fd5b602002602001018181525050808061168290612ade565b915050611445565b508585858585859b509b509b509b509b509b50505050505050909192939495565b6040518060e001604052806000548152602001878152602001868152602001858152602001848152602001838152602001828152506002600080548152602001908152602001600020600082015181600001556020820151816001015560408201518160020155606082015181600301556080820151816004015560a0820151816005015560c0820151816006015590505060008081548092919061174f90612ade565b9190505550600a600088815260200190815260200160002084908060018154018082558091505060019003906000526020600020016000909190919091505550505050505050565b600081600760008581526020019081526020016000205414156117bd57600190506117c2565b600090505b92915050565b600860205281600052604060002081815481106117e457600080fd5b90600052602060002001600091509150505481565b600860008281526020019081526020016000208290806001815401808255809150506001900390600052602060002001600090919091909150558060066000848152602001908152602001600020819055505050565b6060806060806060806000600860008981526020019081526020016000208054806020026020016040519081016040528092919081815260200182805480156118b757602002820191906000526020600020905b8154815260200190600101908083116118a3575b5050505050905060008060015467ffffffffffffffff811115611903577f4e487b7100000000000000000000000000000000000000000000000000000000600052604160045260246000fd5b6040519080825280602002602001820160405280156119315781602001602082028036833780820191505090505b509050600060015467ffffffffffffffff811115611978577f4e487b7100000000000000000000000000000000000000000000000000000000600052604160045260246000fd5b6040519080825280602002602001820160405280156119a65781602001602082028036833780820191505090505b509050600060015467ffffffffffffffff8111156119ed577f4e487b7100000000000000000000000000000000000000000000000000000000600052604160045260246000fd5b604051908082528060200260200182016040528015611a1b5781602001602082028036833780820191505090505b509050600060015467ffffffffffffffff811115611a62577f4e487b7100000000000000000000000000000000000000000000000000000000600052604160045260246000fd5b604051908082528060200260200182016040528015611a905781602001602082028036833780820191505090505b509050600060015467ffffffffffffffff811115611ad7577f4e487b7100000000000000000000000000000000000000000000000000000000600052604160045260246000fd5b604051908082528060200260200182016040528015611b055781602001602082028036833780820191505090505b509050600060015467ffffffffffffffff811115611b4c577f4e487b7100000000000000000000000000000000000000000000000000000000600052604160045260246000fd5b604051908082528060200260200182016040528015611b7a5781602001602082028036833780820191505090505b50905060005b600154811015611e525760005b8951811015611e3e57898181518110611bcf577f4e487b7100000000000000000000000000000000000000000000000000000000600052603260045260246000fd5b602002602001015160036000848152602001908152602001600020600101541415611e2b576003600083815260200190815260200160002060000154888a81518110611c44577f4e487b7100000000000000000000000000000000000000000000000000000000600052603260045260246000fd5b6020026020010181815250506003600083815260200190815260200160002060010154878a81518110611ca0577f4e487b7100000000000000000000000000000000000000000000000000000000600052603260045260246000fd5b6020026020010181815250506003600083815260200190815260200160002060020154868a81518110611cfc577f4e487b7100000000000000000000000000000000000000000000000000000000600052603260045260246000fd5b6020026020010181815250506003600083815260200190815260200160002060030154858a81518110611d58577f4e487b7100000000000000000000000000000000000000000000000000000000600052603260045260246000fd5b6020026020010181815250506003600083815260200190815260200160002060040154848a81518110611db4577f4e487b7100000000000000000000000000000000000000000000000000000000600052603260045260246000fd5b6020026020010181815250506003600083815260200190815260200160002060050154838a81518110611e10577f4e487b7100000000000000000000000000000000000000000000000000000000600052603260045260246000fd5b6020026020010181815250508880611e2790612ade565b9950505b8080611e3690612ade565b915050611b8d565b508080611e4a90612ade565b915050611b80565b508585858585859d509d509d509d509d509d50505050505050505091939550919395565b6040518060c0016040528060015481526020018481526020018581526020018381526020018281526020017f417661696c61626c650000000000000000000000000000000000000000000000815250600360006001548152602001908152602001600020600082015181600001556020820151816001015560408201518160020155606082015181600301556080820151816004015560a08201518160050155905050600154600460008581526020019081526020016000208190555060016000815480929190611f4690612ade565b91905055508460056000858152602001908152602001600020819055505050505050565b60096020528160005260406000208181548110611f8657600080fd5b90600052602060002001600091509150505481565b6060806060600060096000868152602001908152602001600020805480602002602001604051908101604052809291908181526020018280548015611fff57602002820191906000526020600020905b815481526020019060010190808311611feb575b505050505090506000815167ffffffffffffffff811115612049577f4e487b7100000000000000000000000000000000000000000000000000000000600052604160045260246000fd5b6040519080825280602002602001820160405280156120775781602001602082028036833780820191505090505b5090506000825167ffffffffffffffff8111156120bd577f4e487b7100000000000000000000000000000000000000000000000000000000600052604160045260246000fd5b6040519080825280602002602001820160405280156120eb5781602001602082028036833780820191505090505b50905060005b835181101561223f5760066000858381518110612137577f4e487b7100000000000000000000000000000000000000000000000000000000600052603260045260246000fd5b6020026020010151815260200190815260200160002054838281518110612187577f4e487b7100000000000000000000000000000000000000000000000000000000600052603260045260246000fd5b602002602001018181525050600560008583815181106121d0577f4e487b7100000000000000000000000000000000000000000000000000000000600052603260045260246000fd5b6020026020010151815260200190815260200160002054828281518110612220577f4e487b7100000000000000000000000000000000000000000000000000000000600052603260045260246000fd5b602002602001018181525050808061223790612ade565b9150506120f1565b508282829550955095505050509193909250565b60066020528060005260406000206000915090505481565b60008060008060015411156122bf57600091505b6001548210156122be5784600360008481526020019081526020016000206001015414156122ab578190505b81806122b690612ade565b92505061227f565b5b600360008281526020019081526020016000206005015492507f417661696c61626c65000000000000000000000000000000000000000000000083141561238e577f4e410000000000000000000000000000000000000000000000000000000000006003600083815260200190815260200160002060050181905550600960008581526020019081526020016000208590806001815401808255809150506001900390600052602060002001600090919091909150558360076000878152602001908152602001600020819055505b5050505050565b60056020528060005260406000206000915090505481565b60036020528060005260406000206000915090508060000154908060010154908060020154908060030154908060040154908060050154905086565b60076020528060005260406000206000915090505481565b60026020528060005260406000206000915090508060000154908060010154908060020154908060030154908060040154908060050154908060060154905087565b600a602052816000526040600020818154811061245f57600080fd5b90600052602060002001600091509150505481565b60008135905061248381612b56565b92915050565b60008135905061249881612b6d565b92915050565b6000602082840312156124b057600080fd5b60006124be84828501612474565b91505092915050565b600080604083850312156124da57600080fd5b60006124e885828601612474565b92505060206124f985828601612474565b9150509250929050565b600080600080600060a0868803121561251b57600080fd5b600061252988828901612474565b955050602061253a88828901612474565b945050604061254b88828901612474565b935050606061255c88828901612474565b925050608061256d88828901612489565b9150509295509295909350565b600080600080600080600060e0888a03121561259557600080fd5b60006125a38a828b01612474565b97505060206125b48a828b01612474565b96505060406125c58a828b01612474565b95505060606125d68a828b01612474565b94505060806125e78a828b01612489565b93505060a06125f88a828b01612474565b92505060c06126098a828b01612474565b91505092959891949750929550565b6000806040838503121561262b57600080fd5b600061263985828601612474565b925050602061264a85828601612489565b9150509250929050565b60006020828403121561266657600080fd5b600061267484828501612489565b91505092915050565b60006126898383612778565b60208301905092915050565b60006126a18383612796565b60208301905092915050565b60006126b882612a6c565b6126c28185612a9c565b93506126cd83612a4c565b8060005b838110156126fe5781516126e5888261267d565b97506126f083612a82565b9250506001810190506126d1565b5085935050505092915050565b600061271682612a77565b6127208185612aad565b935061272b83612a5c565b8060005b8381101561275c5781516127438882612695565b975061274e83612a8f565b92505060018101905061272f565b5085935050505092915050565b61277281612abe565b82525050565b61278181612aca565b82525050565b61279081612aca565b82525050565b61279f81612ad4565b82525050565b6127ae81612ad4565b82525050565b600060608201905081810360008301526127ce81866126ad565b905081810360208301526127e281856126ad565b905081810360408301526127f681846126ad565b9050949350505050565b600060c082019050818103600083015261281a818961270b565b9050818103602083015261282e81886126ad565b9050818103604083015261284281876126ad565b9050818103606083015261285681866126ad565b9050818103608083015261286a818561270b565b905081810360a083015261287e81846126ad565b9050979650505050505050565b600060e08201905081810360008301526128a5818a61270b565b905081810360208301526128b981896126ad565b905081810360408301526128cd81886126ad565b905081810360608301526128e181876126ad565b905081810360808301526128f5818661270b565b905081810360a083015261290981856126ad565b905081810360c083015261291d81846126ad565b905098975050505050505050565b60006020820190506129406000830184612769565b92915050565b600060208201905061295b6000830184612787565b92915050565b600060208201905061297660008301846127a5565b92915050565b600060c08201905061299160008301896127a5565b61299e6020830188612787565b6129ab6040830187612787565b6129b86060830186612787565b6129c560808301856127a5565b6129d260a0830184612787565b979650505050505050565b600060e0820190506129f2600083018a6127a5565b6129ff6020830189612787565b612a0c6040830188612787565b612a196060830187612787565b612a2660808301866127a5565b612a3360a0830185612787565b612a4060c0830184612787565b98975050505050505050565b6000819050602082019050919050565b6000819050602082019050919050565b600081519050919050565b600081519050919050565b6000602082019050919050565b6000602082019050919050565b600082825260208201905092915050565b600082825260208201905092915050565b60008115159050919050565b6000819050919050565b6000819050919050565b6000612ae982612ad4565b91507fffffffffffffffffffffffffffffffffffffffffffffffffffffffffffffffff821415612b1c57612b1b612b27565b5b600182019050919050565b7f4e487b7100000000000000000000000000000000000000000000000000000000600052601160045260246000fd5b612b5f81612aca565b8114612b6a57600080fd5b50565b612b7681612ad4565b8114612b8157600080fd5b5056fea264697066735822122042147afdb99e939028b4bd86387bc46c825c4fabac17c364af93af6cdab6988164736f6c63430008000033",
  "immutableReferences": {},
  "source": "// SPDX-License-Identifier: MIT\npragma solidity >=0.4.22 <0.9.0;\ncontract product {\n\n    uint256 sellerCount;\n    uint256 productCount;\n\n    struct seller{\n        uint256 sellerId;\n        bytes32 sellerName;\n        bytes32 sellerBrand;\n        bytes32 sellerCode;\n        uint256 sellerNum;\n        bytes32 sellerManager;\n        bytes32 sellerAddress;\n    }\n    mapping(uint=>seller) public sellers;\n\n    struct productItem{\n        uint256 productId;\n        bytes32 productSN;\n        bytes32 productName;\n        bytes32 productBrand;\n        uint256 productPrice;\n        bytes32 productStatus;\n    }\n\n    mapping(uint256=>productItem) public productItems;\n    mapping(bytes32=>uint256) public productMap;\n    mapping(bytes32=>bytes32) public productsManufactured;\n    mapping(bytes32=>bytes32) public productsForSale;\n    mapping(bytes32=>bytes32) public productsSold;\n    mapping(bytes32=>bytes32[]) public productsWithSeller;\n    mapping(bytes32=>bytes32[]) public productsWithConsumer;\n    mapping(bytes32=>bytes32[]) public sellersWithManufacturer;\n\n\n    //SELLER SECTION\n\n    function addSeller(bytes32 _manufacturerId, bytes32 _sellerName, bytes32 _sellerBrand, bytes32 _sellerCode,\n    uint256 _sellerNum, bytes32 _sellerManager, bytes32 _sellerAddress) public{\n        sellers[sellerCount] = seller(sellerCount, _sellerName, _sellerBrand, _sellerCode,\n        _sellerNum, _sellerManager, _sellerAddress);\n        sellerCount++;\n\n        sellersWithManufacturer[_manufacturerId].push(_sellerCode);\n    }\n\n\n    function viewSellers () public view returns(uint256[] memory, bytes32[] memory, bytes32[] memory, bytes32[] memory, uint256[] memory, bytes32[] memory, bytes32[] memory) {\n        uint256[] memory ids = new uint256[](sellerCount);\n        bytes32[] memory snames = new bytes32[](sellerCount);\n        bytes32[] memory sbrands = new bytes32[](sellerCount);\n        bytes32[] memory scodes = new bytes32[](sellerCount);\n        uint256[] memory snums = new uint256[](sellerCount);\n        bytes32[] memory smanagers = new bytes32[](sellerCount);\n        bytes32[] memory saddress = new bytes32[](sellerCount);\n        \n        for(uint i=0; i<sellerCount; i++){\n            ids[i] = sellers[i].sellerId;\n            snames[i] = sellers[i].sellerName;\n            sbrands[i] = sellers[i].sellerBrand;\n            scodes[i] = sellers[i].sellerCode;\n            snums[i] = sellers[i].sellerNum;\n            smanagers[i] = sellers[i].sellerManager;\n            saddress[i] = sellers[i].sellerAddress;\n        }\n        return(ids, snames, sbrands, scodes, snums, smanagers, saddress);\n    }\n\n    //PRODUCT SECTION\n\n    function addProduct(bytes32 _manufactuerID, bytes32 _productName, bytes32 _productSN, bytes32 _productBrand,\n    uint256 _productPrice) public{\n        productItems[productCount] = productItem(productCount, _productSN, _productName, _productBrand,\n        _productPrice, \"Available\");\n        productMap[_productSN] = productCount;\n        productCount++;\n        productsManufactured[_productSN] = _manufactuerID;\n    }\n\n\n    function viewProductItems () public view returns(uint256[] memory, bytes32[] memory, bytes32[] memory, bytes32[] memory, uint256[] memory, bytes32[] memory) {\n        uint256[] memory pids = new uint256[](productCount);\n        bytes32[] memory pSNs = new bytes32[](productCount);\n        bytes32[] memory pnames = new bytes32[](productCount);\n        bytes32[] memory pbrands = new bytes32[](productCount);\n        uint256[] memory pprices = new uint256[](productCount);\n        bytes32[] memory pstatus = new bytes32[](productCount);\n        \n        for(uint i=0; i<productCount; i++){\n            pids[i] = productItems[i].productId;\n            pSNs[i] = productItems[i].productSN;\n            pnames[i] = productItems[i].productName;\n            pbrands[i] = productItems[i].productBrand;\n            pprices[i] = productItems[i].productPrice;\n            pstatus[i] = productItems[i].productStatus;\n        }\n        return(pids, pSNs, pnames, pbrands, pprices, pstatus);\n    }\n\n    //SELL Product\n\n    function manufacturerSellProduct(bytes32 _productSN, bytes32 _sellerCode) public{\n        productsWithSeller[_sellerCode].push(_productSN);\n        productsForSale[_productSN] = _sellerCode;\n\n    }\n\n    function sellerSellProduct(bytes32 _productSN, bytes32 _consumerCode) public{   \n        bytes32 pStatus;\n        uint256 i;\n        uint256 j=0;\n\n        if(productCount>0) {\n            for(i=0;i<productCount;i++) {\n                if(productItems[i].productSN == _productSN) {\n                    j=i;\n                }\n            }\n        }\n\n        pStatus = productItems[j].productStatus;\n        if(pStatus == \"Available\") {\n            productItems[j].productStatus = \"NA\";\n            productsWithConsumer[_consumerCode].push(_productSN);\n            productsSold[_productSN] = _consumerCode;\n        }\n\n\n    }\n\n\n    function queryProductsList(bytes32 _sellerCode) public view returns(uint256[] memory, bytes32[] memory, bytes32[] memory, bytes32[] memory, uint256[] memory, bytes32[] memory){\n        bytes32[] memory productSNs = productsWithSeller[_sellerCode];\n        uint256 k=0;\n\n        uint256[] memory pids = new uint256[](productCount);\n        bytes32[] memory pSNs = new bytes32[](productCount);\n        bytes32[] memory pnames = new bytes32[](productCount);\n        bytes32[] memory pbrands = new bytes32[](productCount);\n        uint256[] memory pprices = new uint256[](productCount);\n        bytes32[] memory pstatus = new bytes32[](productCount);\n\n        \n        for(uint i=0; i<productCount; i++){\n            for(uint j=0; j<productSNs.length; j++){\n                if(productItems[i].productSN==productSNs[j]){\n                    pids[k] = productItems[i].productId;\n                    pSNs[k] = productItems[i].productSN;\n                    pnames[k] = productItems[i].productName;\n                    pbrands[k] = productItems[i].productBrand;\n                    pprices[k] = productItems[i].productPrice;\n                    pstatus[k] = productItems[i].productStatus;\n                    k++;\n                }\n            }\n        }\n        return(pids, pSNs, pnames, pbrands, pprices, pstatus);\n    }\n\n    function querySellersList (bytes32 _manufacturerCode) public view returns(uint256[] memory, bytes32[] memory, bytes32[] memory, bytes32[] memory, uint256[] memory, bytes32[] memory, bytes32[] memory) {\n        bytes32[] memory sellerCodes = sellersWithManufacturer[_manufacturerCode];\n        uint256 k=0;\n        uint256[] memory ids = new uint256[](sellerCount);\n        bytes32[] memory snames = new bytes32[](sellerCount);\n        bytes32[] memory sbrands = new bytes32[](sellerCount);\n        bytes32[] memory scodes = new bytes32[](sellerCount);\n        uint256[] memory snums = new uint256[](sellerCount);\n        bytes32[] memory smanagers = new bytes32[](sellerCount);\n        bytes32[] memory saddress = new bytes32[](sellerCount);\n        \n        for(uint i=0; i<sellerCount; i++){\n            for(uint j=0; j<sellerCodes.length; j++){\n                if(sellers[i].sellerCode==sellerCodes[j]){\n                    ids[k] = sellers[i].sellerId;\n                    snames[k] = sellers[i].sellerName;\n                    sbrands[k] = sellers[i].sellerBrand;\n                    scodes[k] = sellers[i].sellerCode;\n                    snums[k] = sellers[i].sellerNum;\n                    smanagers[k] = sellers[i].sellerManager;\n                    saddress[k] = sellers[i].sellerAddress;\n                    k++;\n                    break;\n               }\n            }\n        }\n\n        return(ids, snames, sbrands, scodes, snums, smanagers, saddress);\n    }\n\n    function getPurchaseHistory(bytes32 _consumerCode) public view returns (bytes32[] memory, bytes32[] memory, bytes32[] memory){\n        bytes32[] memory productSNs = productsWithConsumer[_consumerCode];\n        bytes32[] memory sellerCodes = new bytes32[](productSNs.length);\n        bytes32[] memory manufacturerCodes = new bytes32[](productSNs.length);\n        for(uint i=0; i<productSNs.length; i++){\n            sellerCodes[i] = productsForSale[productSNs[i]];\n            manufacturerCodes[i] = productsManufactured[productSNs[i]];\n        }\n        return (productSNs, sellerCodes, manufacturerCodes);\n    }\n\n    //Verify\n\n    function verifyProduct(bytes32 _productSN, bytes32 _consumerCode) public view returns(bool){\n        if(productsSold[_productSN] == _consumerCode){\n            return true;\n        }\n        else{\n            return false;\n        }\n    }\n}",
  "sourcePath": "C:\\Users\\ashuk\\Downloads\\Fake-Product-Identification-master\\contracts\\product.sol",
  "compiler": {
    "name": "solc",
    "version": "0.8.0+commit.c7dfd78e.Emscripten.clang"
  },
  "schemaVersion": "3.4.16",
  "updatedAt": "2024-04-24T04:33:58.150Z",
  "networkType": "ethereum",
  "devdoc": {
    "kind": "dev",
    "methods": {},
    "version": 1
  },
  "userdoc": {
    "kind": "user",
    "methods": {},
    "version": 1
  }
}